{
  "contractName": "MedicalVault",
  "abi": [
    {
      "anonymous": false,
      "inputs": [
        {
          "indexed": false,
          "internalType": "uint256",
          "name": "recordId",
          "type": "uint256"
        },
        {
          "indexed": false,
          "internalType": "address",
          "name": "provider",
          "type": "address"
        }
      ],
      "name": "AccessGranted",
      "type": "event"
    },
    {
      "anonymous": false,
      "inputs": [
        {
          "indexed": false,
          "internalType": "uint256",
          "name": "recordId",
          "type": "uint256"
        },
        {
          "indexed": false,
          "internalType": "address",
          "name": "provider",
          "type": "address"
        }
      ],
      "name": "AccessRequested",
      "type": "event"
    },
    {
      "anonymous": false,
      "inputs": [
        {
          "indexed": false,
          "internalType": "uint256",
          "name": "id",
          "type": "uint256"
        },
        {
          "indexed": false,
          "internalType": "address",
          "name": "patient",
          "type": "address"
        },
        {
          "indexed": false,
          "internalType": "string",
          "name": "metadataHash",
          "type": "string"
        }
      ],
      "name": "RecordUploaded",
      "type": "event"
    },
    {
      "inputs": [
        {
          "internalType": "uint256",
          "name": "",
          "type": "uint256"
        },
        {
          "internalType": "uint256",
          "name": "",
          "type": "uint256"
        }
      ],
      "name": "accessRequests",
      "outputs": [
        {
          "internalType": "address",
          "name": "provider",
          "type": "address"
        },
        {
          "internalType": "bool",
          "name": "approved",
          "type": "bool"
        }
      ],
      "stateMutability": "view",
      "type": "function",
      "constant": true
    },
    {
      "inputs": [],
      "name": "recordCount",
      "outputs": [
        {
          "internalType": "uint256",
          "name": "",
          "type": "uint256"
        }
      ],
      "stateMutability": "view",
      "type": "function",
      "constant": true
    },
    {
      "inputs": [
        {
          "internalType": "uint256",
          "name": "",
          "type": "uint256"
        }
      ],
      "name": "records",
      "outputs": [
        {
          "internalType": "uint256",
          "name": "id",
          "type": "uint256"
        },
        {
          "internalType": "string",
          "name": "metadataHash",
          "type": "string"
        },
        {
          "internalType": "address",
          "name": "patient",
          "type": "address"
        },
        {
          "internalType": "bool",
          "name": "isShared",
          "type": "bool"
        }
      ],
      "stateMutability": "view",
      "type": "function",
      "constant": true
    },
    {
      "inputs": [
        {
          "internalType": "string",
          "name": "_metadataHash",
          "type": "string"
        }
      ],
      "name": "uploadRecord",
      "outputs": [],
      "stateMutability": "nonpayable",
      "type": "function"
    },
    {
      "inputs": [
        {
          "internalType": "uint256",
          "name": "_recordId",
          "type": "uint256"
        }
      ],
      "name": "requestAccess",
      "outputs": [],
      "stateMutability": "nonpayable",
      "type": "function"
    },
    {
      "inputs": [
        {
          "internalType": "uint256",
          "name": "_recordId",
          "type": "uint256"
        },
        {
          "internalType": "address",
          "name": "_provider",
          "type": "address"
        }
      ],
      "name": "grantAccess",
      "outputs": [],
      "stateMutability": "nonpayable",
      "type": "function"
    },
    {
      "inputs": [
        {
          "internalType": "uint256",
          "name": "_recordId",
          "type": "uint256"
        }
      ],
      "name": "canAccess",
      "outputs": [
        {
          "internalType": "bool",
          "name": "",
          "type": "bool"
        }
      ],
      "stateMutability": "view",
      "type": "function",
      "constant": true
    },
    {
      "inputs": [
        {
          "internalType": "uint256",
          "name": "_recordId",
          "type": "uint256"
        }
      ],
      "name": "getAccessRequests",
      "outputs": [
        {
          "internalType": "address[]",
          "name": "",
          "type": "address[]"
        }
      ],
      "stateMutability": "view",
      "type": "function",
      "constant": true
    }
  ],
  "bytecode": "0x608060405234801561000f575f80fd5b506113ff8061001d5f395ff3fe608060405234801561000f575f80fd5b5060043610610086575f3560e01c80637fb869bb116100595780637fb869bb1461013a5780637fdc2cdc14610156578063900407bc14610172578063c0b281f21461019057610086565b806304596beb1461008a57806334461067146100ba5780633ee9ac05146100ed57806365dd152c1461011e575b5f80fd5b6100a4600480360381019061009f9190610ae4565b6101c0565b6040516100b19190610b29565b60405180910390f35b6100d460048036038101906100cf9190610ae4565b610338565b6040516100e49493929190610c1a565b60405180910390f35b61010760048036038101906101029190610c64565b610416565b604051610115929190610ca2565b60405180910390f35b61013860048036038101906101339190610cf3565b610477565b005b610154600480360381019061014f9190610e5d565b61067d565b005b610170600480360381019061016b9190610ae4565b6107a5565b005b61017a6108a6565b6040516101879190610ea4565b60405180910390f35b6101aa60048036038101906101a59190610ae4565b6108ab565b6040516101b79190610f74565b60405180910390f35b5f3373ffffffffffffffffffffffffffffffffffffffff1660015f8481526020019081526020015f206002015f9054906101000a900473ffffffffffffffffffffffffffffffffffffffff1673ffffffffffffffffffffffffffffffffffffffff16036102305760019050610333565b5f5b60025f8481526020019081526020015f208054905081101561032e573373ffffffffffffffffffffffffffffffffffffffff1660025f8581526020019081526020015f20828154811061028857610287610f94565b5b905f5260205f20015f015f9054906101000a900473ffffffffffffffffffffffffffffffffffffffff1673ffffffffffffffffffffffffffffffffffffffff1614801561030c575060025f8481526020019081526020015f2081815481106102f3576102f2610f94565b5b905f5260205f20015f0160149054906101000a900460ff165b1561031b576001915050610333565b808061032690610fee565b915050610232565b505f90505b919050565b6001602052805f5260405f205f91509050805f01549080600101805461035d90611062565b80601f016020809104026020016040519081016040528092919081815260200182805461038990611062565b80156103d45780601f106103ab576101008083540402835291602001916103d4565b820191905f5260205f20905b8154815290600101906020018083116103b757829003601f168201915b505050505090806002015f9054906101000a900473ffffffffffffffffffffffffffffffffffffffff16908060020160149054906101000a900460ff16905084565b6002602052815f5260405f20818154811061042f575f80fd5b905f5260205f20015f9150915050805f015f9054906101000a900473ffffffffffffffffffffffffffffffffffffffff1690805f0160149054906101000a900460ff16905082565b3373ffffffffffffffffffffffffffffffffffffffff1660015f8481526020019081526020015f206002015f9054906101000a900473ffffffffffffffffffffffffffffffffffffffff1673ffffffffffffffffffffffffffffffffffffffff1614610518576040517f08c379a000000000000000000000000000000000000000000000000000000000815260040161050f906110dc565b60405180910390fd5b5f5b60025f8481526020019081526020015f2080549050811015610678578173ffffffffffffffffffffffffffffffffffffffff1660025f8581526020019081526020015f2082815481106105705761056f610f94565b5b905f5260205f20015f015f9054906101000a900473ffffffffffffffffffffffffffffffffffffffff1673ffffffffffffffffffffffffffffffffffffffff160361066557600160025f8581526020019081526020015f2082815481106105da576105d9610f94565b5b905f5260205f20015f0160146101000a81548160ff0219169083151502179055506001805f8581526020019081526020015f2060020160146101000a81548160ff0219169083151502179055507f3c3a9147a1fc73dd51a32f4d10c43d457e8cb826eb6f35cac6349eb965ba82b483836040516106589291906110fa565b60405180910390a1610678565b808061067090610fee565b91505061051a565b505050565b5f8081548092919061068e90610fee565b919050555060405180608001604052805f5481526020018281526020013373ffffffffffffffffffffffffffffffffffffffff1681526020015f151581525060015f805481526020019081526020015f205f820151815f015560208201518160010190816106fc91906112be565b506040820151816002015f6101000a81548173ffffffffffffffffffffffffffffffffffffffff021916908373ffffffffffffffffffffffffffffffffffffffff16021790555060608201518160020160146101000a81548160ff0219169083151502179055509050507f972dbb81b27759b1d272a61c75844b40278776b139229f8494bae6425cb229a65f54338360405161079a9392919061138d565b60405180910390a150565b60025f8281526020019081526020015f2060405180604001604052803373ffffffffffffffffffffffffffffffffffffffff1681526020015f1515815250908060018154018082558091505060019003905f5260205f20015f909190919091505f820151815f015f6101000a81548173ffffffffffffffffffffffffffffffffffffffff021916908373ffffffffffffffffffffffffffffffffffffffff1602179055506020820151815f0160146101000a81548160ff02191690831515021790555050507f77ae319ce8a9078864c0a262c1ca02afbea9182cf338949d4a4bb12af699e0b5813360405161089b9291906110fa565b60405180910390a150565b5f5481565b60605f805b60025f8581526020019081526020015f208054905081101561092d5760025f8581526020019081526020015f2081815481106108ef576108ee610f94565b5b905f5260205f20015f0160149054906101000a900460ff1661091a57818061091690610fee565b9250505b808061092590610fee565b9150506108b0565b505f8167ffffffffffffffff81111561094957610948610d39565b5b6040519080825280602002602001820160405280156109775781602001602082028036833780820191505090505b5090505f805b60025f8781526020019081526020015f2080549050811015610a945760025f8781526020019081526020015f2081815481106109bc576109bb610f94565b5b905f5260205f20015f0160149054906101000a900460ff16610a815760025f8781526020019081526020015f2081815481106109fb576109fa610f94565b5b905f5260205f20015f015f9054906101000a900473ffffffffffffffffffffffffffffffffffffffff16838381518110610a3857610a37610f94565b5b602002602001019073ffffffffffffffffffffffffffffffffffffffff16908173ffffffffffffffffffffffffffffffffffffffff16815250508180610a7d90610fee565b9250505b8080610a8c90610fee565b91505061097d565b50819350505050919050565b5f604051905090565b5f80fd5b5f80fd5b5f819050919050565b610ac381610ab1565b8114610acd575f80fd5b50565b5f81359050610ade81610aba565b92915050565b5f60208284031215610af957610af8610aa9565b5b5f610b0684828501610ad0565b91505092915050565b5f8115159050919050565b610b2381610b0f565b82525050565b5f602082019050610b3c5f830184610b1a565b92915050565b610b4b81610ab1565b82525050565b5f81519050919050565b5f82825260208201905092915050565b5f5b83811015610b88578082015181840152602081019050610b6d565b5f8484015250505050565b5f601f19601f8301169050919050565b5f610bad82610b51565b610bb78185610b5b565b9350610bc7818560208601610b6b565b610bd081610b93565b840191505092915050565b5f73ffffffffffffffffffffffffffffffffffffffff82169050919050565b5f610c0482610bdb565b9050919050565b610c1481610bfa565b82525050565b5f608082019050610c2d5f830187610b42565b8181036020830152610c3f8186610ba3565b9050610c4e6040830185610c0b565b610c5b6060830184610b1a565b95945050505050565b5f8060408385031215610c7a57610c79610aa9565b5b5f610c8785828601610ad0565b9250506020610c9885828601610ad0565b9150509250929050565b5f604082019050610cb55f830185610c0b565b610cc26020830184610b1a565b9392505050565b610cd281610bfa565b8114610cdc575f80fd5b50565b5f81359050610ced81610cc9565b92915050565b5f8060408385031215610d0957610d08610aa9565b5b5f610d1685828601610ad0565b9250506020610d2785828601610cdf565b9150509250929050565b5f80fd5b5f80fd5b7f4e487b71000000000000000000000000000000000000000000000000000000005f52604160045260245ffd5b610d6f82610b93565b810181811067ffffffffffffffff82111715610d8e57610d8d610d39565b5b80604052505050565b5f610da0610aa0565b9050610dac8282610d66565b919050565b5f67ffffffffffffffff821115610dcb57610dca610d39565b5b610dd482610b93565b9050602081019050919050565b828183375f83830152505050565b5f610e01610dfc84610db1565b610d97565b905082815260208101848484011115610e1d57610e1c610d35565b5b610e28848285610de1565b509392505050565b5f82601f830112610e4457610e43610d31565b5b8135610e54848260208601610def565b91505092915050565b5f60208284031215610e7257610e71610aa9565b5b5f82013567ffffffffffffffff811115610e8f57610e8e610aad565b5b610e9b84828501610e30565b91505092915050565b5f602082019050610eb75f830184610b42565b92915050565b5f81519050919050565b5f82825260208201905092915050565b5f819050602082019050919050565b610eef81610bfa565b82525050565b5f610f008383610ee6565b60208301905092915050565b5f602082019050919050565b5f610f2282610ebd565b610f2c8185610ec7565b9350610f3783610ed7565b805f5b83811015610f67578151610f4e8882610ef5565b9750610f5983610f0c565b925050600181019050610f3a565b5085935050505092915050565b5f6020820190508181035f830152610f8c8184610f18565b905092915050565b7f4e487b71000000000000000000000000000000000000000000000000000000005f52603260045260245ffd5b7f4e487b71000000000000000000000000000000000000000000000000000000005f52601160045260245ffd5b5f610ff882610ab1565b91507fffffffffffffffffffffffffffffffffffffffffffffffffffffffffffffffff820361102a57611029610fc1565b5b600182019050919050565b7f4e487b71000000000000000000000000000000000000000000000000000000005f52602260045260245ffd5b5f600282049050600182168061107957607f821691505b60208210810361108c5761108b611035565b5b50919050565b7f4f6e6c792070617469656e742063616e206772616e74000000000000000000005f82015250565b5f6110c6601683610b5b565b91506110d182611092565b602082019050919050565b5f6020820190508181035f8301526110f3816110ba565b9050919050565b5f60408201905061110d5f830185610b42565b61111a6020830184610c0b565b9392505050565b5f819050815f5260205f209050919050565b5f6020601f8301049050919050565b5f82821b905092915050565b5f6008830261117d7fffffffffffffffffffffffffffffffffffffffffffffffffffffffffffffffff82611142565b6111878683611142565b95508019841693508086168417925050509392505050565b5f819050919050565b5f6111c26111bd6111b884610ab1565b61119f565b610ab1565b9050919050565b5f819050919050565b6111db836111a8565b6111ef6111e7826111c9565b84845461114e565b825550505050565b5f90565b6112036111f7565b61120e8184846111d2565b505050565b5b81811015611231576112265f826111fb565b600181019050611214565b5050565b601f8211156112765761124781611121565b61125084611133565b8101602085101561125f578190505b61127361126b85611133565b830182611213565b50505b505050565b5f82821c905092915050565b5f6112965f198460080261127b565b1980831691505092915050565b5f6112ae8383611287565b9150826002028217905092915050565b6112c782610b51565b67ffffffffffffffff8111156112e0576112df610d39565b5b6112ea8254611062565b6112f5828285611235565b5f60209050601f831160018114611326575f8415611314578287015190505b61131e85826112a3565b865550611385565b601f19841661133486611121565b5f5b8281101561135b57848901518255600182019150602085019450602081019050611336565b868310156113785784890151611374601f891682611287565b8355505b6001600288020188555050505b505050505050565b5f6060820190506113a05f830186610b42565b6113ad6020830185610c0b565b81810360408301526113bf8184610ba3565b905094935050505056fea264697066735822122005094ad3239f216a1b39413c481535264c2608ef7cf551f02e13ae49e7d77bbf64736f6c63430008150033",
  "immutableReferences": {},
  "source": "// SPDX-License-Identifier: MIT\npragma solidity ^0.8.0;\n\ncontract MedicalVault {\n    struct Record {\n        uint id;\n        string metadataHash;\n        address patient;\n        bool isShared;\n    }\n\n    struct Access {\n        address provider;\n        bool approved;\n    }\n\n    uint public recordCount;\n    mapping(uint => Record) public records;\n    mapping(uint => Access[]) public accessRequests;\n\n    event RecordUploaded(uint id, address patient, string metadataHash);\n    event AccessRequested(uint recordId, address provider);\n    event AccessGranted(uint recordId, address provider);\n\n    function uploadRecord(string memory _metadataHash) public {\n        recordCount++;\n        records[recordCount] = Record(recordCount, _metadataHash, msg.sender, false);\n        emit RecordUploaded(recordCount, msg.sender, _metadataHash);\n    }\n\n    function requestAccess(uint _recordId) public {\n        accessRequests[_recordId].push(Access(msg.sender, false));\n        emit AccessRequested(_recordId, msg.sender);\n    }\n\n    function grantAccess(uint _recordId, address _provider) public {\n        require(records[_recordId].patient == msg.sender, \"Only patient can grant\");\n        for (uint i = 0; i < accessRequests[_recordId].length; i++) {\n            if (accessRequests[_recordId][i].provider == _provider) {\n                accessRequests[_recordId][i].approved = true;\n                records[_recordId].isShared = true;\n                emit AccessGranted(_recordId, _provider);\n                break;\n            }\n        }\n    }\n\n    function canAccess(uint _recordId) public view returns (bool) {\n        if (records[_recordId].patient == msg.sender) return true;\n        for (uint i = 0; i < accessRequests[_recordId].length; i++) {\n            if (\n                accessRequests[_recordId][i].provider == msg.sender &&\n                accessRequests[_recordId][i].approved\n            ) {\n                return true;\n            }\n        }\n        return false;\n    }\n\n    //  New function to get pending access requests\n    function getAccessRequests(uint _recordId) public view returns (address[] memory) {\n        uint total = 0;\n        for (uint i = 0; i < accessRequests[_recordId].length; i++) {\n            if (!accessRequests[_recordId][i].approved) {\n                total++;\n            }\n        }\n\n        address[] memory pending = new address[](total);\n        uint index = 0;\n        for (uint i = 0; i < accessRequests[_recordId].length; i++) {\n            if (!accessRequests[_recordId][i].approved) {\n                pending[index] = accessRequests[_recordId][i].provider;\n                index++;\n            }\n        }\n\n        return pending;\n    }\n}\n",
  "sourcePath": "/home/student/medical-dapp/contracts/MedicalVault.sol",
  "compiler": {
    "name": "solc",
    "version": "0.8.21+commit.d9974bed.Emscripten.clang"
  },
  "schemaVersion": "3.4.16",
  "updatedAt": "2025-05-27T05:24:41.909Z",
  "networkType": "ethereum",
  "devdoc": {
    "kind": "dev",
    "methods": {},
    "version": 1
  },
  "userdoc": {
    "kind": "user",
    "methods": {},
    "version": 1
  }
}